S014000054494E59333231375F5154342E73726563C7
S11300000C943E000C945B000C945B000C945B001D
S11300100C945B000C945B000C9469000C945B00E2
S11300200C945B000C945B000C945B000C945B00E0
S11300300C945B000C945B000C945B000C945B00D0
S11300400C945B000C945B000C945B000C945B00C0
S11300500C9409060C945B000C945B000C945B00FC
S11300600C945B000C945B000C945B000C945B00A0
S11300700C945B000C945B000C945B0011241FBE79
S1130080CFEFCDBFDFE3DEBF18E3A0E0B8E3E0EEDF
S1130090F7E202C005900D92A637B107D9F728E31D
S11300A0A6E7B8E301C01D92AE3DB207E1F70E9496
S11300B04D020C94EB130C940000CF93DF93CDB757
S11300C0DEB70E94D9090E9422050000DF91CF917A
S11300D008951F920F9200903F000F9211242F93C6
S11300E03F934F935F936F937F938F939F93AF93BC
S11300F0BF93EF93FF93CF93DF93CDB7DEB70E9407
S1130100840580E491E022E0FC0123830000DF9178
S1130110CF91FF91EF91BF91AF919F918F917F917B
S11301206F915F914F913F912F910F9000923F00FB
S11301300F901F901895CF93DF9300D0CDB7DEB703
S113014089836A838A818823A9F020E030E080E0F3
S113015090E0FC018181682F8981482F50E081E083
S113016090E002C0880F991F4A95E2F7862BF901A7
S1130170818315C020E030E080E090E0FC018181C3
S1130180682F8981482F50E081E090E002C0880FF9
S1130190991F4A95E2F780958623F901818300002F
S11301A00F900F90DF91CF910895CF93DF9300D0FC
S11301B0CDB7DEB789836A838A818823A9F084E076
S11301C090E024E030E0F9012181622F2981422F5F
S11301D050E021E030E002C0220F331F4A95E2F7DD
S11301E0262BFC01218315C084E090E024E030E05C
S11301F0F9012181622F2981422F50E021E030E072
S113020002C0220F331F4A95E2F720952623FC01F2
S1130210218300000F900F90DF91CF910895CF9329
S1130220DF931F92CDB7DEB7898384E090E0FC01B1
S11302308281282F30E08981482F50E081E090E0CE
S113024002C0880F991F4A95E2F78223932321E085
S1130250892B09F420E0822F0F90DF91CF9108952C
S1130260CF93DF931F92CDB7DEB78983698184E092
S11302700E949B0000000F90DF91CF910895CF93CF
S1130280DF931F92CDB7DEB78983698185E00E9431
S11302909B0000000F90DF91CF910895CF93DF93DF
S11302A01F92CDB7DEB78983698180E00E94D500B3
S11302B000000F90DF91CF910895CF93DF931F92A9
S11302C0CDB7DEB78983698181E00E94D500000043
S11302D00F90DF91CF910895CF93DF93CDB7DEB721
S11302E085E00E940F01DF91CF910895CF93DF93B2
S11302F01F92CDB7DEB78983698186E00E94D5005D
S113030000000F90DF91CF910895CF93DF9300D039
S11303101F92CDB7DEB789839A836B8389819A81D3
S11303204B8168ED0E941F0A00002396CDBFDEBFFB
S1130330DF91CF910895CF93DF93CDB7DEB761E01E
S113034081E490E00E9485010000DF91CF9108953F
S1130350CF93DF93CDB7DEB778940E9433058091B5
S11303607B38813031F410927B380E94BD010E94A9
S113037030020000DF91CF910895CF93DF931F9255
S1130380CDB7DEB719821092763819821AC08981E6
S1130390882F90E00E94EC05882384F48981282F1B
S11303A030E081E090E002C0880F991F2A95E2F7BF
S11303B0982F80917638892B8093763889818F5F46
S11303C089838981843018F380917638882321F0D9
S11303D080E00E94760103C081E00E947601809152
S11303E07638882F90E081709927892B21F080E05E
S11303F00E944E0103C081E00E944E018091763834
S1130400882F90E082709927892B21F080E00E9448
S1130410300103C081E00E94300180917638882F3A
S113042090E084709927892B21F080E00E945D017F
S113043003C081E00E945D0180917638882F90E0AE
S113044088709927892B21F080E00E943F0103C026
S113045081E00E943F0100000F90DF91CF91089549
S1130460CF93DF93CDB7DEB70E946C01982F81E064
S11304708927882331F0809177388F5F809377388C
S113048002C01092773880917738833011F40E943B
S11304909B010000DF91CF910895CF93DF93CDB7F7
S11304A0DEB70E945D0080E590E020E530E0F901D0
S11304B02081297FFC0120830E94A80180E590E02F
S11304C020E530E0F90120812160FC01208388953A
S11304D080E590E020E530E0F90120812E7FFC01E9
S11304E02083EACFCF93DF93CDB7DEB70000DF914F
S11304F0CF910895CF93DF931F92CDB7DEB7898351
S113050000000E94580A982F81E089278823C9F7A0
S113051089810E94800A00000E946C0A8823E1F706
S113052000000F90DF91CF910895CF93DF93CDB763
S1130530DEB72B97CDBFDEBF809178388F708C8368
S11305408C818823A1F419821A820DC089819A8131
S11305508050984CFC0180810E947A0289819A81A2
S1130560019689839A8389819A81439778F385E5F3
S11305700E947A02809178380E947A021A861B8639
S11305806CC08A859B850E949E058D839E838D8188
S11305900E947A028D819E81892F99270E947A0276
S11305A08A859B850E94B8058D839E838D810E94D8
S11305B07A028D819E81892F99270E947A028A85E9
S11305C09B850E949E058F8398878A859B850E94C0
S11305D0B8059C018F819885821B930B8F83988724
S11305E08F8198858D839E838D810E947A028D816F
S11305F09E81892F99270E947A028A859B850E9471
S1130600D2058D839E838D810E947A028D819E8185
S1130610892F99270E947A028A859B850E94EC057E
S113062089878985882324F481E00E947A0203C0A3
S113063080E00E947A022A853B85C901880F991FB0
S1130640820F931F8F59974CFC0180810E947A027C
S11306508A859B8501968A879B878A859B850497D3
S113066008F48FCF8091383890913938FC01848117
S11306700E947A021B8213C080915538909156389B
S1130680FC01258136818B81882F90E0820F931F96
S1130690FC0180810E947A028B818F5F8B83809121
S11306A0553890915638FC0192818B81891720F33B
S11306B080917C380E947A028091783891E0980F7A
S11306C0909378380E947A028AEA0E947A020000A3
S11306D02B96CDBFDEBFDF91CF910895CF93DF93EB
S11306E000D000D0CDB7DEB78B836C838B81882F8D
S11306F090E0805F9B4F89839A838C81813059F489
S113070089819A81FC018081282F286089819A81BE
S1130710FC0120830DC08C81882351F489819A8146
S1130720FC018081282F277F89819A81FC01208305
S113073000002496CDBFDEBFDF91CF910895CF9303
S1130740DF9300D000D0CDB7DEB78B836C838B8171
S1130750882F90E0805F9B4F89839A8389819A8157
S1130760FC018081982F987F8C81892B282F898187
S11307709A81FC01208300002496CDBFDEBFDF9167
S1130780CF910895CF93DF9300D000D0CDB7DEB7DB
S11307908B836C838B81882F90E0805D9B4F898352
S11307A09A838C81813059F489819A81FC018081FA
S11307B0282F286089819A81FC0120830DC08C81B7
S11307C0882351F489819A81FC018081282F277F15
S11307D089819A81FC01208300002496CDBFDEBF6D
S11307E0DF91CF910895CF93DF9300D000D0CDB7A0
S11307F0DEB78B836C838B81882F90E0805D9B4F69
S113080089839A8389819A81FC018081982F987FBA
S11308108C81892B282F89819A81FC0120830000F7
S11308202496CDBFDEBFDF91CF910895CF93DF93A0
S113083000D000D0CDB7DEB78B836C838B81882F3B
S113084090E0805B9B4F89839A838C81813059F43B
S113085089819A81FC018081282F286089819A816D
S1130860FC0120830DC08C81882351F489819A81F5
S1130870FC018081282F277F89819A81FC012083B4
S113088000002496CDBFDEBFDF91CF910895CF93B2
S1130890DF9300D000D0CDB7DEB78B836C838B8120
S11308A0882F90E0805B9B4F89839A8389819A810A
S11308B0FC018081982F987F8C81892B282F898136
S11308C09A81FC01208300002496CDBFDEBFDF9116
S11308D0CF910895CF93DF93CDB7DEB760E084E086
S11308E00E94C20364E084E00E94F30360E087E0B6
S11308F00E946E0364E087E00E949F0360E082E050
S11309000E94160464E082E00E94470460E086E0EE
S11309100E946E0364E086E00E949F0360E081E031
S11309200E94160464E081E00E9447040000DF9105
S1130930CF910895CF93DF9300D01F92CDB7DEB748
S11309401B8288E398E30E94A7128AEB98E30E9433
S1130950ED1219821A8213C089819A81BC0188E33D
S113096098E30E945F1389819A81BC0188E398E32C
S11309700E947E1389819A81019689839A83898151
S11309809A81049748F319821A8217C029813A81FF
S1130990C901880F991F880F991F820F931F8A55C9
S11309A0974C2981AC01622F8DE698E30E940F0BCE
S11309B089819A81019689839A8389819A8104978E
S11309C028F38B812396CDBFDEBFDF91CF910895AD
S11309D0CF93DF93CDB7DEB781E080937A38000000
S11309E0DF91CF910895CF93DF931F92CDB7DEB7F8
S11309F0898389818F5F80937C380E9495020000EF
S1130A000F90DF91CF910895CF93DF931F92CDB7CD
S1130A10DEB78983000080E491E0FC018181882FA6
S1130A2090E084709927892BB1F780E491E02981C3
S1130A30222F30E0FC012287338700000F90DF91E2
S1130A40CF910895CF93DF93CDB7DEB780E20E94B4
S1130A5004050E946A040E949A040E947202000023
S1130A60DF91CF910895CF93DF931F92CDB7DEB777
S1130A7080917938813061F468EE74E088E398E31A
S1130A800E94F71289838981882311F4109279389E
S1130A9080917A38813099F510927A380E94291120
S1130AA0898389818823B9F483E598E30E94D40E6D
S1130AB089838981882319F081E00E94F3048DE6FB
S1130AC098E30E942E0B89838981882339F082E080
S1130AD00E94F30403C080E00E94F30480916D3807
S1130AE090916E38FC018081882324F481E0809306
S1130AF0793803C081E080937B380E94950200001E
S1130B000F90DF91CF910895CF93DF93CDB7DEB7E8
S1130B108091A2388F5F8093A2388091A23884316B
S1130B2048F01092A23881E08093793884E190E013
S1130B300E94040B0000DF91CF910895CF93DF93BF
S1130B4000D0CDB7DEB789839A8329813A81C90160
S1130B50880F991F880F991F820F931F8955974CEF
S1130B60FC01808191810F900F90DF91CF910895C6
S1130B70CF93DF9300D0CDB7DEB789839A832981E1
S1130B803A81C901880F991F820F931F880F991FFB
S1130B908A53974CFC01808191810F900F90DF91D3
S1130BA0CF910895CF93DF9300D0CDB7DEB789837B
S1130BB09A8329813A81C901880F991F880F991F47
S1130BC0820F931F8755974CFC01808191810F9070
S1130BD00F90DF91CF910895CF93DF9300D0CDB7DD
S1130BE0DEB789839A834091713850917238298194
S1130BF03A81C901880F991F820F931F880F991F8B
S1130C00840F951FFC0180810F900F90DF91CF918D
S1130C1008951F920F9200903F000F9211242F937A
S1130C203F934F935F936F937F938F939F93AF9370
S1130C30BF93EF93FF93CF93DF93CDB7DEB70E94BB
S1130C40BF130000DF91CF91FF91EF91BF91AF915E
S1130C509F918F917F916F915F914F913F912F91D0
S1130C600F9000923F000F901F901895CF93DF9341
S1130C70CDB7DEB780E0DF91CF910895CF93DF93B6
S1130C8000D01F92CDB7DEB789839A836B838981A5
S1130C909A814B8168ED0E941F0A00002396CDBF04
S1130CA0DEBFDF91CF910895CF93DF93CDB7DEB749
S1130CB061E081E690E00E943E0680E0DF91CF9102
S1130CC00895CF93DF93CDB7DEB7789480E0DF91BA
S1130CD0CF910895CF93DF9300D0CDB7DEB789834A
S1130CE06A838A81882F90E081309105E1F0823017
S1130CF0910571F1892B09F03BC020E030E080E0E0
S1130D0090E0FC018081682F8981482F50E081E0C8
S1130D1090E002C0880F991F4A95E2F780958623D8
S1130D20F901808325C020E030E080E090E0FC0100
S1130D308081682F8981482F50E081E090E002C0D3
S1130D40880F991F4A95E2F7862BF901808310C01A
S1130D508981882F90E0805F9B4F2981222F30E08A
S1130D60205F3B4FF90120812860FC0120830000B3
S1130D7000000F900F90DF91CF910895CF93DF93F0
S1130D8000D0CDB7DEB789836A838A818823A9F02E
S1130D9020E030E080E090E0FC018181682F8981CF
S1130DA0482F50E081E090E002C0880F991F4A95D7
S1130DB0E2F7862BF901818315C020E030E080E062
S1130DC090E0FC018181682F8981482F50E081E007
S1130DD090E002C0880F991F4A95E2F78095862318
S1130DE0F901818300000F900F90DF91CF91089556
S1130DF0CF93DF9300D000D0CDB7DEB78B836C8365
S1130E008B81882F90E0805D9B4F89839A838C81AE
S1130E10813059F489819A81FC018081282F2860CE
S1130E2089819A81FC0120830DC08C81882351F42F
S1130E3089819A81FC018081282F277F89819A8169
S1130E40FC01208300002496CDBFDEBFDF91CF914B
S1130E500895CF93DF9300D0CDB7DEB789836A833B
S1130E608A81882F90E081309105E1F082309105EC
S1130E7071F1892B09F03BC084E090E024E030E07C
S1130E80F9012081622F2981422F50E021E030E0D6
S1130E9002C0220F331F4A95E2F720952623FC0156
S1130EA0208325C084E090E024E030E0F901208133
S1130EB0622F2981422F50E021E030E002C0220F4E
S1130EC0331F4A95E2F7262BFC01208310C0898149
S1130ED0882F90E0805D9B4F2981222F30E0205D98
S1130EE03B4FF90120812860FC01208300000000B1
S1130EF00F900F90DF91CF910895CF93DF9300D09F
S1130F00CDB7DEB789836A838A818823A9F084E018
S1130F1090E024E030E0F9012181622F2981422F01
S1130F2050E021E030E002C0220F331F4A95E2F77F
S1130F30262BFC01218315C084E090E024E030E0FE
S1130F40F9012181622F2981422F50E021E030E014
S1130F5002C0220F331F4A95E2F720952623FC0195
S1130F60218300000F900F90DF91CF910895CF93CC
S1130F70DF9300D0CDB7DEB789836A838A81882F57
S1130F8090E081309105E1F08230910571F1892B77
S1130F9009F03BC088E090E028E030E0F9012081CE
S1130FA0622F2981422F50E021E030E002C0220F5D
S1130FB0331F4A95E2F720952623FC01208325C0A0
S1130FC088E090E028E030E0F9012081622F298157
S1130FD0422F50E021E030E002C0220F331F4A9537
S1130FE0E2F7262BFC01208310C08981882F90E032
S1130FF0805B9B4F2981222F30E0205B3B4FF9011E
S113100020812860FC012083000000000F900F90D5
S1131010DF91CF910895CF93DF9300D0CDB7DEB7A2
S113102089836A838A818823A9F088E090E028E094
S113103030E0F9012181622F2981422F50E021E023
S113104030E002C0220F331F4A95E2F7262BFC0141
S1131050218315C088E090E028E030E0F901218187
S1131060622F2981422F50E021E030E002C0220F9C
S1131070331F4A95E2F720952623FC0121830000C3
S11310800F900F90DF91CF910895CF93DF931F922C
S1131090CDB7DEB78983698184E00E946A060000C7
S11310A00F90DF91CF910895CF93DF931F92CDB727
S11310B0DEB78983698184E00E94BE0600000F9038
S11310C0DF91CF910895CF93DF931F92CDB7DEB711
S11310D08983698185E00E946A0600000F90DF9190
S11310E0CF910895CF93DF931F92CDB7DEB7898355
S11310F0698185E00E94BE0600000F90DF91CF91C8
S11311000895CF93DF931F92CDB7DEB789836981AA
S113111080E00E94290700000F90DF91CF9108958D
S1131120CF93DF931F92CDB7DEB78983698180E0C7
S11311300E947D0700000F90DF91CF910895CF9317
S1131140DF931F92CDB7DEB78983698181E00E9466
S1131150290700000F90DF91CF910895CF93DF937B
S11311601F92CDB7DEB78983698181E00E947D0734
S113117000000F90DF91CF910895CF93DF931F92DA
S1131180CDB7DEB78983698182E00E942907000018
S11311900F90DF91CF910895CF93DF931F92CDB736
S11311A0DEB78983698182E00E947D0700000F9089
S11311B0DF91CF910895CF93DF931F92CDB7DEB720
S11311C08983698183E00E94F80600000F90DF9113
S11311D0CF910895CF93DF931F92CDB7DEB7898364
S11311E0698183E00E94290700000F90DF91CF916D
S11311F00895CF93DF931F92CDB7DEB789836981BA
S113120085E00E94F80600000F90DF91CF910895C9
S1131210CF93DF931F92CDB7DEB78983698185E0D1
S11312200E94290700000F90DF91CF910895CF937A
S1131230DF931F92CDB7DEB78983698186E00E9470
S1131240290700000F90DF91CF910895CF93DF938A
S11312501F92CDB7DEB78983698186E00E947D073E
S113126000000F90DF91CF910895CF93DF931F92E9
S1131270CDB7DEB78983698187E00E94F806000054
S11312800F90DF91CF910895CF93DF931F92CDB745
S1131290DEB78983698187E00E94290700000F90E7
S11312A0DF91CF910895CF93DF931F92CDB7DEB72F
S11312B08983698183E00E94B70700000F90DF9162
S11312C0CF910895CF93DF931F92CDB7DEB7898373
S11312D0698183E00E940B0800000F90DF91CF9199
S11312E00895CF93DF9300D01F92CDB7DEB7198254
S11312F012C08981882F90E0805F9B4F2981222F23
S113130030E0205F3B4FF90120812860FC012083FD
S113131089818F5F89838981883058F31A8212C04A
S11313208A81882F90E0805D9B4F2A81222F30E0B4
S1131330205D3B4FF90120812860FC0120838A81D4
S11313408F5F8A838A81883058F31B8212C08B8115
S1131350882F90E0805B9B4F2B81222F30E0205B15
S11313603B4FF90120812860FC0120838B818F5F32
S11313708B838B81883058F300002396CDBFDEBF6A
S1131380DF91CF910895CF93DF93CDB7DEB780E09F
S11313900E94EA0880E00E94DB0881E00E94BD0808
S11313A080E00E94CC080E94440A0000DF91CF91A3
S11313B00895CF93DF93CDB7DEB70E94710981E022
S11313C00E94450881E00E94540881E00E9463085D
S11313D081E00E94720881E00E94810881E00E94FD
S11313E0900881E00E949F0881E00E94AE0880E09E
S11313F00E94080981E00E94F90881E00E9417090F
S113140081E00E94260980E00E94440980E00E9455
S1131410350981E00E94530980E00E9462090E941C
S113142054060E94230A0E94C3090E9461060E9476
S11314303C0A0E9436060000DF91CF910895FC011A
S113144064BF40830895CF93DF93CDB7DEB7000028
S113145080E491E0FC0181818823D1F780E491E06C
S113146021E8FC01208380E491E022E0FC01228356
S113147080E0DF91CF910895CF93DF93CDB7DEB7AE
S113148080E0DF91CF910895CF93DF93CDB7DEB79E
S113149080E098E022E134E0FC012087318780E09D
S11314A098E020ECFC01268380E0DF91CF91089541
S11314B0CF93DF93CDB7DEB780E098E0FC01848161
S11314C0882F90E08072992721E0892B09F420E08D
S11314D0822FDF91CF910895CF93DF93CDB7DEB7FD
S11314E080E098E0FC018481882F90E08074992743
S11314F021E0892B09F020E0822FDF91CF9108951C
S1131500CF93DF931F92CDB7DEB78983000080E0CD
S113151098E0FC018481882F90E080729927892BC0
S1131520B1F380E098E02981FC01228300000F9050
S1131530DF91CF910895CF92DF92FF920F931F9383
S1131540CF93DF93EC01AE81BF81EB01CC0FDD1FA4
S1131550C60FD71FCA0FDB1FFA80FC0144815581D7
S1131560E6E0E69F9001E79F300D11248A01020F07
S1131570131FF80122813381F90121813281F8019D
S113158004811581201B310BE8812E1B3109EC01EC
S1131590EA81FB8100811181FA0140E050E04017AB
S11315A0510739F146175707F9F012968C911297A3
S11315B0F8121AC0808185588230E8F0C480D58042
S11315C082819381EC0189819A81C816D90660F4DD
S11315D08C199D09CC91D0E0C817D90728F48C1B2D
S11315E09D0B2817390738F04F5F5F4F13963696D7
S11315F0D6CF80E001C081E0DF91CF911F910F91A0
S1131600FF90DF90CF90089520917D3830917E38FF
S1131610820F931F80937D3890937E3808950097AE
S1131620D9F041155105C1F026E0629FB0011124A3
S1131630DC011496ED91FC911597E60FF71F21E05C
S1131640208314968D919C911597FC01E60FF71F4A
S11316504283538380E008958BE008952F923F9254
S11316604F925F926F927F928F929F92AF92BF92AE
S1131670CF92DF92EF92FF920F931F93CF93DF935A
S1131680009709F47DC3EC01A12CB12C812C912C81
S1131690212CD12C33E0C32E45E8642E56E8752E58
S11316A067E0362E72E0472EE8E05E2EEA81FB8189
S11316B0808191818816990608F0A5C17501EE0C08
S11316C0FF1C0C811D810E0D1F1DD8018C918430CF
S11316D009F4A2C038F4823001F108F049C0813025
S11316E059F08AC1853809F4C2C0863809F4F6C0B5
S11316F0873009F081C137C1D8011296ED91FC9170
S1131700139780818E7109F069C14C928C819D81FF
S1131710FC01EE0DFF1D518261C1F80121812223DC
S113172029F10280F381E02D253020F0818192811E
S1131730D8010EC0D80114968D919C9115974181C2
S113174052818417950769F04817590730F40197B7
S113175014968D939C93159704C00196F801848385
S113176095832150D80111962C9338C1F80131C1C9
S1131770D80114962D913C91159712968D919C91B8
S11317801397DC0111964D915C911297241735073C
S113179009F432C18E819F8142175307E0F4241B60
S11317A0350BDC01AA0DBB1D8C9190E0058002C0B5
S11317B0959587950A94E2F799272817390708F42D
S11317C01BC18481882309F417C1F8013082EA819E
S11317D0FB8124811AC0FC01EA0DFB1D421B530B43
S11317E0808190E04817590708F406C18281882354
S11317F031F0B401CE010E949B0A8111FDC0E4E0E6
S1131800D801EC93EA81FB8122818C819D81FC01CA
S1131810EE0DFF1D2183E2C0D80114962D913C9159
S113182015971296ED91FC911397818192818217FD
S1131830930708F4D7C0EE81FF81EA0DFB1D821BDC
S1131840930B208130E02817390708F0AFC082815C
S1131850882331F0B401CE010E949B0A8111CCC0CF
S1131860F8018181882309F467C08150B6C0A8813A
S1131870B981808513968C93EC81FD81EE0DFF1D5B
S113188044815581A281B38111968D919C911297C7
S113189084179507C0F0AE81BF81AA0DBB1D6C9162
S11318A0262F30E011967C917F5F02C035952795F5
S11318B07A95E2F7841B950B621B262F30E02817DC
S11318C0390708F497C07082EA81FB8122818C81F8
S11318D09D81FC01EE0DFF1D218342C0D8011496A9
S11318E06D917C9115971296ED91FC91139721813E
S11318F032812617370758F411968C91119781116C
S113190002C0CC9277C08150F801818373C0EE810C
S1131910FF81EA0DFB1D8081482F50E091819F5F7C
S113192002C0559547959A95E2F7261B370B841B01
S113193090E08217930760F4D8016C92EA81FB81EE
S113194023818C819D81FC01EE0DFF1D218352C0FA
S1131950F8018181811102C0C0824CC08150818311
S1131960222423943BC0D80114962D913C911597C1
S113197012968D919C911397DC0111968D919C91F7
S113198012978217930768F5281B390BAE81BF8124
S1131990AA0DBB1D8C9190E0058002C0959587959A
S11319A00A94E2F799272817390718F4F801C08236
S11319B01AC0D80111968C91119781110CC081E045
S11319C08C938C819D81FC01EE0DFF1D0280F381BF
S11319D0E02DC08211C08150F8018183DD24D394AD
S11319E00BC0D801CC928C819D81FC01EE0DFF1DB2
S11319F0118202C022242394BFEF8B1A9B0AE3E0D6
S1131A00AE0EB11C53CEE881F981808187FF23C0DB
S1131A1040E050E020E030E0EA81FB818081918168
S1131A202817390798F4EC81FD81E40FF51FA28192
S1131A30B3818C9180FD05C09081977F11F0816006
S1131A408C932F5F3F4F4A5F5F4FE6CFE881F98168
S1131A5080818F778083D11007C0E881F9812110BC
S1131A606FC080818E7F6EC0EA81FB81818588236F
S1131A70A1F3E881F981808180688083EA81FB8118
S1131A808185813051F740E050E020E030E096E07D
S1131A90D92EEA81FB816081718126173707E8F628
S1131AA00C811D81FA01EE0FFF1FE00FF11F8081F1
S1131AB0982F977FA1F1853811F08330B1F5EE802E
S1131AC0FF80D701A40FB51F1296BC90BB2039F13B
S1131AD080E090E0C12C86179707F8F4281739079F
S1131AE0D1F0D89ED001D99EB00D1124A00FB11F02
S1131AF0AC91A43011F0A63871F4DC01AA0FBB1F1D
S1131B00A80FB91FAE0DBF1D1296AC91BA1203C037
S1131B10CB01CC24C3940196DECFC11006C0028051
S1131B20F381E02D80818E7F05C00280F381E02D5A
S1131B308081816080832F5F3F4F4D5F5F4FA9CFCE
S1131B4080818160808380917D3890917E38E881A6
S1131B50F98121813281A90148535F4F4817590700
S1131B6038F4821B930BAA24A394A3E0BA2E44C096
S1131B708217930710F080E004C1821B930B019736
S1131B80893C9105C0F3EFCF885C9109E881F98124
S1131B902181328128533F4F2183328323812111B4
S1131BA096C02481222311F021502483E881F981F5
S1131BB02581222311F0215025838A809B80D40122
S1131BC016962C91169721111BC08A809B80F401D4
S1131BD02781211148C0EA81FB812381222361F0FE
S1131BE020E030E0A0E0B0E0EA81FB814081518157
S1131BF0A417B50708F46EC0893C910528F6BBCF3D
S1131C0008811981F80124812111DFCFED90FC9026
S1131C1060E070E040E050E04E155F05F1F0EC81CB
S1131C20FD81E60FF71F2081233011F0283081F465
S1131C3024813581C280D380D6011196CD90DC9069
S1131C4012972C153D0520F42F5F3F4F24833583D5
S1131C504F5F5F4F6A5F7F4FDFCFF4012681D8016A
S1131C6014962C93B2CF08811981D80115962C9122
S1131C702111B1CFE080F18060E070E040E050E0FD
S1131C804E155F05F1F0EC81FD81E60FF71F208111
S1131C90233011F0283081F424813581C280D3802F
S1131CA0D6011196CD90DC901297C216D30620F47B
S1131CB021503109248335834F5F5F4F6A5F7F4F23
S1131CC0DFCFF4012781D80115962C9384CF2150BE
S1131CD0238381CFA901440F551FEC81FD81E40FBB
S1131CE0F51F6081653809F047C06181662319F0EA
S1131CF06150618341C0A0826C817D81FB01E40F4E
S1131D00F51F0280F381E02DB082EE81FF81E20FA6
S1131D10F31FD280DD2081F140E050E000E010E0CC
S1131D20EA81FB81608171810617170728F5EE812E
S1131D30FF81E40FF51F6281D61219C0BA01660F44
S1131D40771FEC81FD814F01860E971EF401E2801E
S1131D50F380F701F080F0FE0AC0F401A082EC8168
S1131D60FD81E60FF71F0280F381E02DB0820F5F43
S1131D701F4F4D5F5F4FD4CF11962D5F3F4F34CF30
S1131D808BE0DF91CF911F910F91FF90EF90DF9047
S1131D90CF90BF90AF909F908F907F906F905F9007
S1131DA04F903F902F9008952F923F924F925F92C1
S1131DB06F927F928F929F92AF92BF92CF92DF9257
S1131DC0EF92FF920F931F93CF93DF93CDB7DEB7BC
S1131DD02C97CDBFDEBF2C01009709F463C1DC0151
S1131DE012962D903C901397F1017280ED91FC9125
S1131DF06180D10117968C911797E72CF12CEB8217
S1131E00FC82262D30E0882309F4A9C08D909C9093
S1131E105701AA0CBB1C6901CC0CDD1CE12CF12C74
S1131E2040E050E000E010E00815190549F1848114
S1131E3095818E0D9F1DDC0111966D917C911297F9
S1131E40828193818C0D9D1DDC018D919C9186175F
S1131E50970728F4DB01A81BB90BCD0105C068174F
S1131E60790730F4861B970B4817590708F4AC011F
S1131E700F5F1F4FB5E0EB0EF11CCA0CDB1CD4CF77
S1131E80D10118968C91682F70E06417750708F0DB
S1131E9057C00680F781E02DE20FF31F80818F5F2A
S1131EA08083F20140815181A281B381FA01818151
S1131EB046815781FA01E80FF11D908119968C91A2
S1131EC0199798134CC015960D911C911697D8012B
S1131ED0A20FB31F8C91882311F0815001C08FE0B1
S1131EE0F80161E070E040E050E0EB80FC804E15CA
S1131EF05F0560F44217530729F09081981302C0DC
S1131F0060E070E04F5F5F4F3196EFCF672B19F3BE
S1131F108C9380E090E0D2011296ED91FC9113979E
S1131F20428150E084179507D0F4D201ED91FC91E1
S1131F300680F781E02DE80FF91F10820196EBCFA0
S1131F40869590E04817590750F40680F781E02DF4
S1131F50E20FF31F8081882311F081508083F20106
S1131F600280F381E02DE983FA83EB80FC80EE0CA0
S1131F70FF1CEB82FC82B901660F771F6D837E83A1
S1131F80D72CD694D39440E050E020E030E0E12C0C
S1131F90F12C8D2D90E08F839887A981BA818D9142
S1131FA09C91E816F90608F068C0D201ED91FC9105
S1131FB0A481B581BD01620F731F6B877C87DB0130
S1131FC08C918C7109F04FC011966D917C91129790
S1131FD082819381840F951FED81FE81E80FF91FA3
S1131FE060837183A12CB12CC12CC714C0F5FC01F2
S1131FF0EC0DF11DEC0DF11D89879A8799249394BA
S1132000812C312C7314C9F0C31479F0A985BA85D5
S11320100D911C91608171810617170711F4939437
S113202004C00617170708F48394339469857A85E6
S11320306E5F7F4F69877A87E5CF9D1458F48D14BE
S113204060F4692D70E0680D711DAF81B8856A1761
S11320507B071CF0A080B180C72CC394C6CFEB854E
S1132060FC85A182B282FFEFEF1AFF0A2B5F3F4F7C
S11320706B817C81460F571F90CF6394671408F0DF
S1132080612CE981FA81A381B48185819681FC0167
S1132090E60DF11D80818C93D201ED91FC9161825A
S11320A080E001C08BE02C96CDBFDEBFDF91CF91E5
S11320B01F910F91FF90EF90DF90CF90BF90AF9062
S11320C09F908F907F906F905F904F903F902F9054
S11320D008958091823890918338A091DA38B09134
S11320E0DB38ED91FC9111974081518125E0289FC7
S11320F0B001299F700D112420E030E0841795076A
S1132100A8F41496ED91FC911597E20FF31FE60FD6
S1132110F71FE0812B5F3F4FE0FD02C00196EECF39
S1132120809382389093833880E0089510928238A7
S11321301092833881E00895BC01E091DA38F0917F
S1132140DB389C0183E0220F331F8A95E1F7A281DB
S1132150B381A20FB31F12969C91129713968C9180
S113216090932A0680932B06A281B381A20FB31FFA
S11321709C9111968C91909326068093270695E066
S1132180969FA001979F500D1124A481B581A40F9F
S1132190B51F13968C9180931A06A481B581A40F60
S11321A0B51F14968C9180931B06A481B581A40F4E
S11321B0B51F8C9181FD9C9384819581DC01A40FD2
S11321C0B51F8C918C7169F4A281B381A20FB31FE6
S11321D01696AC91A295AF70B0E0A652B8458C911A
S11321E001C08FE380931C06A281B381A20FB31FA9
S11321F014968C918B3110F48C5F01C08FE1809325
S11322000506A281B381A20FB31F17968C91809308
S11322100106A281B381A20FB31F15968C918295FA
S11322208F708093190682819381FC01E20FF31F62
S113223085818F7080618093020680911806836087
S11322408093180681E88093000681E08093080655
S113225008953F924F925F926F927F928F929F92D6
S1132260AF92BF92CF92DF92EF92FF920F931F93A0
S1132270CF93DF9380918138882309F448C1A091DA
S1132280DA38B091DB38C090DC38D090DD3800E02B
S113229010E060E070E0E12CF12C80E03324339412
S11322A0D1E84D2E88248A94992493946D907C903F
S11322B01197F30120813181E216F30608F023C15E
S11322C0E601299139916E011496ED91FC911597CF
S11322D0E60FF71F40814C7150E05695479556958F
S11322E047954115510521F041305105B9F002C11E
S11322F01296CD91DC911397C00FD11F4E814F7070
S11323009F81491710F4941B01C090E002C03695D8
S113231027959A95E2F721833283EDC012964D9169
S11323205C911397400F511FEA010F8002C036954C
S113233027950A94E2F721833283A380B480211580
S1132340D2E03D0720F02F5F314091E005C0A401A9
S1132350421B530B9A0190E0E3015A80D0E45D12D2
S113236005C036952795992319F009C0992339F0AA
S11323704FEFA416B40631F440828EE007C07724F0
S1132380739401C0712C2A30310590F41496ED91A8
S1132390FC911597E60FF71F908197FF30821496F2
S11323A0ED91FC911597E60FF71FA382B482A3C0A9
S11323B0E501CD2FDD27C295CF709C2FA5014427C1
S11323C05F70652EA501407F5527529542954F7049
S11323D045275F7045275A2D5F70A52EC43030F015
S11323E09370D695C795D695C7959C0F71103CC030
S11323F050E8550D523010F456E007C053E005C0C4
S1132400951768F49F5F2F5C3109203D3105C0F7B3
S113241006C0CFE06C1649F063942551310926318A
S11324203105B8F7DFE06D120EC0951720F49F5FF9
S1132430D5E06D2E08C0CFE06C2E05C04F3049F0BA
S11324404F5F2250310923303105C0F74F3009F076
S113245065C04FE0641681F1639445E05FC0992341
S113246061F091502F5C3109203D3105C0F705C062
S1132470662041F06A942551310926313105C0F7AF
S113248061100DC0992321F091505AE0652E07C0C8
S1132490612C05C0442341F04150225031092330BE
S11324A03105C0F7411110C06620E9F16A944AE091
S11324B023303105C8F608C059132FC02330310525
S11324C040F14FE0A42E4FE0943018F0990F990F8B
S11324D09950C0E14C9FA001112456294A29C92FC3
S11324E0D0E0DC2FCC27D295D07F4C2B5D2B4383BF
S11324F0548301C0FFCFDFEFED1AFD0A6B5F7F4FFE
S1132500085F1F4FD3CE92E0909381380EC083E0D2
S11325100CC04FE02FE0A22ED7CF4FE0233031057F
S113252008F073CFD1CF40E0CFCFDF91CF911F918F
S11325300F91FF90EF90DF90CF90BF90AF909F905E
S11325408F907F906F905F904F903F900895CF93BE
S1132550DF930097E1F1DC01ED91FC91A081B18161
S113256060E070E040E050E020E030E04A175B07B4
S113257099F0EC01EA81FB81E60FF71FC081D1815C
S11325800280F381E02DEC2BFD2B2E2B3F2B4F5F94
S11325905F4F685F7F4FEACF21153105D1F08091FD
S11325A08138811108C0209322063093230681E0EC
S11325B0809381380AC080912206822B8093220660
S11325C080912306832B8093230680E003C08BE055
S11325D001C082E0DF91CF910895009731F080939C
S11325E0DC389093DD3880E008958BE00895611520
S11325F07105A1F1009791F120918138222381F195
S1132600243081F18093DA389093DB3860937F38FB
S11326107093803810921806DC01ED91FC912281B0
S1132620203439F420EC20931806209118062062F7
S113263005C0203841F4209118062862209318061A
S113264010921E0613C0213879F4209118062862CE
S11326502093180626E820931E0608C08BE00895F0
S113266083E0089581E0089582E0089510920006C1
S1132670DC01ED91FC918481803108F080E180934C
S1132680030681E080930B0680930A0680937538D5
S113269010928238109283380E94691081110BC005
S11326A084E08093813880918238909183380E94AD
S11326B09C1080E0089582E080938138089500970B
S11326C0C9F0DC01ED91FC9111972081318126172D
S11326D0370790F045E0469F9001479F300D112445
S11326E01496ED91FC911597E20FF31F81E080831E
S11326F080E008958BE0089582E00895FC01892B21
S1132700D1F1A081B1818D919C9111978617970782
S1132710A0F112969C910480F581E02D903459F437
S113272085E0869FD001879FB00D1124AE0FBF1F97
S113273084E392E00DC09058923080F485E0869F47
S1132740D001879FB00D1124AE0FBF1F87E695E01F
S113275013968D939C93149780E001C082E095E0DA
S1132760969F9001979F300D1124E20FF31F9081E3
S11327709260908308958BE0089582E0089510920A
S11327800006409110065091110680918238909174
S113279083389C01220F331FE091DC38F091DD383F
S11327A0E20FF31F40835183019680938238909304
S11327B083380E946910811109C084E080938138B4
S11327C080918238909183380C949C10E0917F38EA
S10D27D0F09180380994F894FFCFCB
S10927DA3F1C0B05030186
S11327E05FB400864A03EB00000000000000AA5515
S11327F0016EA00400813000882104000A02030451
S1132800842108000A0203048C010020050201044B
S11328108C2000010502010413381838A638000181
S11328200204000317383E38010F0600008438A65E
S113283038A3384B3841380400040005001405144B
S1132840011401001401002801002801009C3857DC
S109285038C238613801B2
S9030000FC
