:100000000C943E000C945B000C945B000C945B0021
:100010000C945B000C945B000C9461000C945B00EE
:100020000C945B000C945B000C945B000C945B00E4
:100030000C945B000C945B000C945B000C945B00D4
:100040000C945B000C945B000C945B000C945B00C4
:100050000C94B2020C945B000C945B000C945B005B
:100060000C945B000C945B000C945B000C945B00A4
:100070000C945B000C945B000C945B0011241FBE7D
:10008000CFEFCDBFDFE3DEBF18E3A0E0B8E3E2E7E8
:10009000F9E102C005900D92A637B107D9F728E320
:1000A000A6E7B8E301C01D92AE3DB207E1F70E949A
:1000B000E9000C94B40C0C9400000E9409030C9409
:1000C000BC011F920F920FB60F9211242F933F93F2
:1000D0004F935F936F937F938F939F93AF93BF9350
:1000E000EF93FF930E946B0282E080934301FF91A4
:1000F000EF91BF91AF919F918F917F916F915F91A0
:100100004F913F912F910F900FBE0F901F90189518
:100110000F931F93CF93DF9310927738C0E0D0E016
:1001200001E010E0CE010E94A30287FF0BC02091E6
:100130007738C8010C2E01C0880F0A94EAF7822B89
:10014000809377382196C430D10561F78091773854
:10015000882311F02E9801C02E9A80FF02C02898A3
:1001600001C0289A81FF02C00C9801C00C9A82FF3E
:1001700002C0299801C0299A83FF02C00D9801C0CE
:100180000D9ADF91CF911F910F910895359906C077
:10019000809176388F5F8093763802C010927638DF
:1001A00080917638833031F441E068ED81E490E06D
:1001B0000C943303089578940E94260280917A3833
:1001C000813031F410927A380E9488000C94C60075
:1001D00008950E945D0080915000897F80935000B7
:1001E0000E94DB00809150008160809350008895D0
:1001F000809150008E7FF2CF0895CF93C82F0E9438
:100200004F038823E1F38C2F0E945D030E94550366
:100210008111FCCFCF9108950F931F93CF93DF935C
:1002200000D0CDB7DEB7809178388F7051F085E57A
:100230000E94FD00809178380E94FD0019821A8288
:1002400056C000E018E3F8E303311F0781F3F8011B
:1002500081918F010E94FD00F6CF89819A810E94D1
:100260007C02192F0E94FD00812F0E94FD008981D0
:100270009A810E948902192F0E94FD00812F0E94FD
:10028000FD0089819A810E947C028C0189819A817A
:100290000E948902081B190B802F0E94FD00812FEC
:1002A0000E94FD0089819A810E949602192F0E9466
:1002B000FD00812F0E94FD0089819A810E94A30286
:1002C00087FF1BC081E00E94FD0089819A81FC01AB
:1002D000EE0FFF1F8E0F9F1FFC01E55EF74C808124
:1002E0000E94FD0089819A81019689839A83898180
:1002F0009A81049708F4B1CF02C080E0E4CFE09186
:100300004A38F0914B3884810E94FD0010E0E09162
:100310003338F09134388281181750F40580F68113
:10032000E02DE10FF11D80810E94FD001F5FEFCFE6
:10033000809179380E94FD008091783891E0980F83
:10034000909378380E94FD008AEA0E94FD000F9089
:100350000F90DF91CF911F910F91089581E08093CD
:100360007B3808959091410192FDFCCF90E08093FD
:100370004A0190934B0108950F931F93CF93DF93FE
:1003800080E20E94B20180913404877F809334041C
:1003900080913404887F84608093340480911704B2
:1003A000877F8093170480911704887F84608093EF
:1003B000170480915204877F8093520480915204E5
:1003C000887F84608093520480911604877F809395
:1003D000160480911604887F8460809316048091AF
:1003E0005104877F8093510480915104887F8460F9
:1003F000809351048AE498E30E94700B8AEB98E39F
:100400000E94B60BC0E0D0E0BE018AE498E30E94EF
:10041000280CBE018AE498E30E94470C2196C43060
:10042000D10591F706EA18E3C0E0A8016C2F83E13B
:1004300098E30E94D803CF5F0B5F1F4FC430A9F72A
:10044000DF91CF911F910F910C94FC00CF9380917D
:100450007C38813051F46EEA71E08AE498E30E94BE
:10046000C00B811102C010927C38C0917B38C13022
:1004700081F510927B380E94F209811115C081E349
:1004800098E30E949D07882329F082E080937938C1
:100490000E940C0183E198E30E94F703882341F056
:1004A00083E08093793802C0C09379380E940C01B0
:1004B000E0911338F0911438808187FF04C081E007
:1004C00080937C3803C081E080937A38CF910C947C
:1004D0000C01CF9108958091A2388F5F843118F478
:1004E0008093A23808951092A23881E080937C38DE
:1004F00084E190E00C94CD0325E0AC01249FC00181
:10050000259F900D1124FC01EA55F74C81819281C1
:10051000089526E0AC01249FC001259F900D112471
:10052000FC01EE53F74C84819581089525E0AC01E0
:10053000249FC001259F900D1124FC01EA55F74C22
:1005400083819481089526E0AC01249FC001259FFA
:10055000900D1124E0911738F0911838E80FF91F29
:10056000808108951F920F920FB60F9211242F933E
:100570003F934F935F936F937F938F939F93AF932B
:10058000BF93EF93FF930E94880CFF91EF91BF916F
:10059000AF919F918F917F916F915F914F913F911B
:1005A0002F910F900FBE0F901F90189580E0089527
:1005B00041E068ED81E690E00E94330380E0089519
:1005C000789480E00895E0E1F4E080818860819390
:1005D000E83184E0F807C9F7E0E3F4E0808188605F
:1005E0008193E83384E0F807C9F7E0E5F4E080811F
:1005F00088608193E83584E0F807C9F70895239867
:10060000E3E3F4E08081877F8083229A2A980C9428
:1006100045030E94E302049A0C9A059A0D9A209AC7
:10062000289A219A299A2598E5E3F4E08081886048
:100630008083269A2E9A2798E7E3F4E08081877FCB
:100640008083439A4B980E94D8020E9437030E94ED
:10065000FF020E94E0020E9443030E94D60281E052
:10066000809316060895FC0164BF4083089580912D
:1006700041018111FCCF81E88093400182E08093A9
:10068000420180E0089580E00895E0E0F8E082E132
:1006900094E08087918780EC868380E00895809144
:1006A000040885FB882780F908958091040886FB5B
:1006B000882780F991E0892708959091040895FF93
:1006C000FCCF809302080895CF92DF92FF920F93A0
:1006D0001F93CF93DF93EC01AE81BF81EB01CC0F71
:1006E000DD1FC60FD71FCA0FDB1FFA80FC01448134
:1006F0005581E6E0E69F9001E79F300D11248A01C5
:10070000020F131FF80122813381F9012181328107
:10071000F80104811581201B310BE8812E1B310962
:10072000EC01EA81FB8100811181FA0140E050E097
:100730004017510739F146175707F9F012968C9177
:100740001297F8121AC0808185588230E8F0C48070
:10075000D58082819381EC0189819A81C816D9065E
:1007600060F48C199D09CC91D0E0C817D90728F402
:100770008C1B9D0B2817390738F04F5F5F4F13967E
:100780003696D6CF80E001C081E0DF91CF911F91F6
:100790000F91FF90DF90CF90089520917D38309198
:1007A0007E38820F931F80937D3890937E38089512
:1007B0000097D9F041155105C1F026E0629FB001C4
:1007C0001124DC011496ED91FC911597E60FF71FAB
:1007D00021E0208314968D919C911597FC01E60FE2
:1007E000F71F4283538380E008958BE008952F9292
:1007F0003F924F925F926F927F928F929F92AF92B1
:10080000BF92CF92DF92EF92FF920F931F93CF93FD
:10081000DF93009709F47DC3EC01A12CB12C812C4E
:10082000912C212CD12C33E0C32E45E8642E56E8C0
:10083000752E67E0362E72E0472EE8E05E2EEA81E4
:10084000FB81808191818816990608F0A5C1750108
:10085000EE0CFF1C0C811D810E0D1F1DD8018C910B
:10086000843009F4A2C038F4823001F108F049C0A4
:10087000813059F08AC1853809F4C2C0863809F43C
:10088000F6C0873009F081C137C1D8011296ED91C9
:10089000FC91139780818E7109F069C14C928C8113
:1008A0009D81FC01EE0DFF1D518261C1F801218186
:1008B000222329F10280F381E02D253020F081816F
:1008C0009281D8010EC0D80114968D919C911597F4
:1008D000418152818417950769F04817590730F410
:1008E000019714968D939C93159704C00196F80177
:1008F000848395832150D80111962C9338C1F80137
:1009000031C1D80114962D913C91159712968D9175
:100910009C911397DC0111964D915C9112972417CD
:10092000350709F432C18E819F8142175307E0F4E5
:10093000241B350BDC01AA0DBB1D8C9190E00580BA
:1009400002C0959587950A94E2F7992728173907E9
:1009500008F41BC18481882309F417C1F80130828F
:10096000EA81FB8124811AC0FC01EA0DFB1D421BB8
:10097000530B808190E04817590708F406C1828123
:10098000882331F0B401CE010E9464038111FDC0BF
:10099000E4E0D801EC93EA81FB8122818C819D8186
:1009A000FC01EE0DFF1D2183E2C0D80114962D91AC
:1009B0003C9115971296ED91FC911397818192814C
:1009C0008217930708F4D7C0EE81FF81EA0DFB1D63
:1009D000821B930B208130E02817390708F0AFC045
:1009E0008281882331F0B401CE010E946403811119
:1009F000CCC0F8018181882309F467C08150B6C05A
:100A0000A881B981808513968C93EC81FD81EE0DD0
:100A1000FF1D44815581A281B38111968D919C91D6
:100A2000129784179507C0F0AE81BF81AA0DBB1D38
:100A30006C91262F30E011967C917F5F02C0359536
:100A400027957A95E2F7841B950B621B262F30E0E1
:100A50002817390708F497C07082EA81FB81228148
:100A60008C819D81FC01EE0DFF1D218342C0D801C8
:100A700014966D917C9115971296ED91FC911397B8
:100A8000218132812617370758F411968C911197DE
:100A9000811102C0CC9277C08150F801818373C06C
:100AA000EE81FF81EA0DFB1D8081482F50E091818E
:100AB0009F5F02C0559547959A95E2F7261B370B25
:100AC000841B90E08217930760F4D8016C92EA814E
:100AD000FB8123818C819D81FC01EE0DFF1D218313
:100AE00052C0F8018181811102C0C0824CC0815086
:100AF0008183222423943BC0D80114962D913C91EC
:100B0000159712968D919C911397DC0111968D91FA
:100B10009C9112978217930768F5281B390BAE81B9
:100B2000BF81AA0DBB1D8C9190E0058002C09595F8
:100B300087950A94E2F799272817390718F4F801DE
:100B4000C0821AC0D80111968C91119781110CC0E6
:100B500081E08C938C819D81FC01EE0DFF1D028054
:100B6000F381E02DC08211C08150F8018183DD2422
:100B7000D3940BC0D801CC928C819D81FC01EE0DE9
:100B8000FF1D118202C022242394BFEF8B1A9B0AFF
:100B9000E3E0AE0EB11C53CEE881F981808187FF7E
:100BA00023C040E050E020E030E0EA81FB8180811A
:100BB00091812817390798F4EC81FD81E40FF51F26
:100BC000A281B3818C9180FD05C09081977F11F047
:100BD00081608C932F5F3F4F4A5F5F4FE6CFE88184
:100BE000F98180818F778083D11007C0E881F981F6
:100BF00021106FC080818E7F6EC0EA81FB8181856C
:100C00008823A1F3E881F981808180688083EA816B
:100C1000FB818185813051F740E050E020E030E0F9
:100C200096E0D92EEA81FB81608171812617370712
:100C3000E8F60C811D81FA01EE0FFF1FE00FF11F96
:100C40008081982F977FA1F1853811F08330B1F51D
:100C5000EE80FF80D701A40FB51F1296BC90BB2079
:100C600039F180E090E0C12C86179707F8F4281737
:100C70003907D1F0D89ED001D99EB00D1124A00F14
:100C8000B11FAC91A43011F0A63871F4DC01AA0FA9
:100C9000BB1FA80FB91FAE0DBF1D1296AC91BA12A3
:100CA00003C0CB01CC24C3940196DECFC11006C093
:100CB0000280F381E02D80818E7F05C00280F38168
:100CC000E02D8081816080832F5F3F4F4D5F5F4FBC
:100CD000A9CF80818160808380917D3890917E381A
:100CE000E881F98121813281A90148535F4F48177A
:100CF000590738F4821B930BAA24A394A3E0BA2EBD
:100D000044C08217930710F080E004C1821B930B4C
:100D10000197893C9105C0F3EFCF885C9109E88188
:100D2000F9812181328128533F4F218332832381EE
:100D3000211196C02481222311F021502483E881BF
:100D4000F9812581222311F0215025838A809B80FF
:100D5000D40116962C91169721111BC08A809B8076
:100D6000F4012781211148C0EA81FB8123812223DC
:100D700061F020E030E0A0E0B0E0EA81FB8140815A
:100D80005181A417B50708F46EC0893C910528F677
:100D9000BBCF08811981F80124812111DFCFED90AB
:100DA000FC9060E070E040E050E04E155F05F1F02F
:100DB000EC81FD81E60FF71F2081233011F02830F0
:100DC00081F424813581C280D380D6011196CD90E3
:100DD000DC9012972C153D0520F42F5F3F4F2483A4
:100DE00035834F5F5F4F6A5F7F4FDFCFF40126810E
:100DF000D80114962C93B2CF08811981D801159689
:100E00002C912111B1CFE080F18060E070E040E0F2
:100E100050E04E155F05F1F0EC81FD81E60FF71F04
:100E20002081233011F0283081F424813581C28063
:100E3000D380D6011196CD90DC901297C216D306BE
:100E400020F421503109248335834F5F5F4F6A5F5F
:100E50007F4FDFCFF4012781D80115962C9384CFE3
:100E60002150238381CFA901440F551FEC81FD81BF
:100E7000E40FF51F6081653809F047C06181662382
:100E800019F06150618341C0A0826C817D81FB01BA
:100E9000E40FF51F0280F381E02DB082EE81FF8127
:100EA000E20FF31FD280DD2081F140E050E000E04E
:100EB00010E0EA81FB81608171810617170728F530
:100EC000EE81FF81E40FF51F6281D61219C0BA01CD
:100ED000660F771FEC81FD814F01860E971EF4018E
:100EE000E280F380F701F080F0FE0AC0F401A082F6
:100EF000EC81FD81E60FF71F0280F381E02DB082C7
:100F00000F5F1F4F4D5F5F4FD4CF11962D5F3F4F47
:100F100034CF8BE0DF91CF911F910F91FF90EF9035
:100F2000DF90CF90BF90AF909F908F907F906F9009
:100F30005F904F903F902F9008952F923F924F9245
:100F40005F926F927F928F929F92AF92BF92CF9259
:100F5000DF92EF92FF920F931F93CF93DF93CDB762
:100F6000DEB72C97CDBFDEBF2C01009709F463C11B
:100F7000DC0112962D903C901397F1017280ED9157
:100F8000FC916180D10117968C911797E72CF12C79
:100F9000EB82FC82262D30E0882309F4A9C08D90D5
:100FA0009C905701AA0CBB1C6901CC0CDD1CE12CE8
:100FB000F12C40E050E000E010E00815190549F17F
:100FC000848195818E0D9F1DDC0111966D917C9120
:100FD0001297828193818C0D9D1DDC018D919C91D6
:100FE0008617970728F4DB01A81BB90BCD0105C0B4
:100FF0006817790730F4861B970B4817590708F4D0
:10100000AC010F5F1F4FB5E0EB0EF11CCA0CDB1CEF
:10101000D4CFD10118968C91682F70E064177507B2
:1010200008F057C00680F781E02DE20FF31F8081A2
:101030008F5F8083F20140815181A281B381FA01E7
:10104000818146815781FA01E80FF11D908119963F
:101050008C91199798134CC015960D911C91169769
:10106000D801A20FB31F8C91882311F0815001C0C9
:101070008FE0F80161E070E040E050E0EB80FC8040
:101080004E155F0560F44217530729F090819813BD
:1010900002C060E070E04F5F5F4F3196EFCF672B8B
:1010A00019F38C9380E090E0D2011296ED91FC91BF
:1010B0001397428150E084179507D0F4D201ED9147
:1010C000FC910680F781E02DE80FF91F1082019650
:1010D000EBCF869590E04817590750F40680F781CA
:1010E000E02DE20FF31F8081882311F0815080836F
:1010F000F2010280F381E02DE983FA83EB80FC802A
:10110000EE0CFF1CEB82FC82B901660F771F6D832A
:101110007E83D72CD694D39440E050E020E030E09A
:10112000E12CF12C8D2D90E08F839887A981BA81D5
:101130008D919C91E816F90608F068C0D201ED91F6
:10114000FC91A481B581BD01620F731F6B877C8701
:10115000DB018C918C7109F04FC011966D917C91DF
:10116000129782819381840F951FED81FE81E80F94
:10117000F91F60837183A12CB12CC12CC714C0F559
:10118000FC01EC0DF11DEC0DF11D89879A87992466
:101190009394812C312C7314C9F0C31479F0A98570
:1011A000BA850D911C91608171810617170711F4A2
:1011B000939404C00617170708F483943394698541
:1011C0007A856E5F7F4F69877A87E5CF9D1458F4E3
:1011D0008D1460F4692D70E0680D711DAF81B885C4
:1011E0006A177B071CF0A080B180C72CC394C6CFC0
:1011F000EB85FC85A182B282FFEFEF1AFF0A2B5F1D
:101200003F4F6B817C81460F571F90CF63946714CB
:1012100008F0612CE981FA81A381B48185819681EE
:10122000FC01E60DF11D80818C93D201ED91FC91C2
:10123000618280E001C08BE02C96CDBFDEBFDF91E4
:10124000CF911F910F91FF90EF90DF90CF90BF90C3
:10125000AF909F908F907F906F905F904F903F9056
:101260002F9008958091823890918338A091DA3838
:10127000B091DB38ED91FC9111974081518125E0CF
:10128000289FB001299F700D112420E030E08417C1
:101290009507A8F41496ED91FC911597E20FF31FB2
:1012A000E60FF71FE0812B5F3F4FE0FD02C0019684
:1012B000EECF809382389093833880E00895109227
:1012C00082381092833881E00895BC01E091DA38C9
:1012D000F091DB389C0183E0220F331F8A95E1F700
:1012E000A281B381A20FB31F12969C9112971396FD
:1012F0008C9190932A0680932B06A281B381A20F32
:10130000B31F9C9111968C9190932606809327068B
:1013100095E0969FA001979F500D1124A481B5815F
:10132000A40FB51F13968C9180931A06A481B581E2
:10133000A40FB51F14968C9180931B06A481B581D0
:10134000A40FB51F8C9181FD9C9384819581DC0154
:10135000A40FB51F8C918C7169F4A281B381A20F87
:10136000B31F1696AC91A295AF70B0E0A459B646E3
:101370008C9101C08FE380931C06A281B381A20FE0
:10138000B31F14968C918B3110F48C5F01C08FE1E8
:1013900080930506A281B381A20FB31F17968C918B
:1013A00080930106A281B381A20FB31F15968C9181
:1013B00082958F708093190682819381FC01E20FE0
:1013C000F31F85818F7080618093020680911806DB
:1013D00083608093180681E88093000681E0809303
:1013E000080608953F924F925F926F927F928F927C
:1013F0009F92AF92BF92CF92DF92EF92FF920F93A4
:101400001F93CF93DF9380918138882309F448C1DB
:10141000A091DA38B091DB38C090DC38D090DD385C
:1014200000E010E060E070E0E12CF12C80E033247B
:101430003394D1E84D2E88248A94992493946D9006
:101440007C901197F30120813181E216F30608F0B8
:1014500023C1E601299139916E011496ED91FC9119
:101460001597E60FF71F40814C7150E05695479550
:10147000569547954115510521F041305105B9F078
:1014800002C11296CD91DC911397C00FD11F4E81EE
:101490004F709F81491710F4941B01C090E002C067
:1014A000369527959A95E2F721833283EDC01296FF
:1014B0004D915C911397400F511FEA010F8002C0BC
:1014C000369527950A94E2F721833283A380B4806E
:1014D0002115D2E03D0720F02F5F314091E005C09B
:1014E000A401421B530B9A0190E0E3015A80D0E41F
:1014F0005D1205C036952795992319F009C09923E7
:1015000039F04FEFA416B40631F440828EE007C0E4
:101510007724739401C0712C2A30310590F414960D
:10152000ED91FC911597E60FF71F908197FF3082A0
:101530001496ED91FC911597E60FF71FA382B482E4
:10154000A3C0E501CD2FDD27C295CF709C2FA5014B
:1015500044275F70652EA501407F5527529542951F
:101560004F7045275F7045275A2D5F70A52EC430F8
:1015700030F09370D695C795D695C7959C0F71108E
:101580003CC050E8550D523010F456E007C053E00F
:1015900005C0951768F49F5F2F5C3109203D310528
:1015A000C0F706C0CFE06C1649F0639425513109AD
:1015B00026313105B8F7DFE06D120EC0951720F423
:1015C0009F5FD5E06D2E08C0CFE06C2E05C04F3078
:1015D00049F04F5F2250310923303105C0F74F30B9
:1015E00009F065C04FE0641681F1639445E05FC087
:1015F000992361F091502F5C3109203D3105C0F7EE
:1016000005C0662041F06A94255131092631310523
:10161000C0F761100DC0992321F091505AE0652E5A
:1016200007C0612C05C0442341F0415022503109CC
:1016300023303105C0F7411110C06620E9F16A94EA
:101640004AE023303105C8F608C059132FC02330B3
:10165000310540F14FE0A42E4FE0943018F0990F7F
:10166000990F9950C0E14C9FA001112456294A2995
:10167000C92FD0E0DC2FCC27D295D07F4C2B5D2B0F
:101680004383548301C0FFCFDFEFED1AFD0A6B5F88
:101690007F4F085F1F4FD3CE92E0909381380EC0EA
:1016A00083E00CC04FE02FE0A22ED7CF4FE02330D5
:1016B000310508F073CFD1CF40E0CFCFDF91CF918C
:1016C0001F910F91FF90EF90DF90CF90BF90AF9060
:1016D0009F908F907F906F905F904F903F90089574
:1016E000CF93DF930097E1F1DC01ED91FC91A081B4
:1016F000B18160E070E040E050E020E030E04A1767
:101700005B0799F0EC01EA81FB81E60FF71FC081CE
:10171000D1810280F381E02DEC2BFD2B2E2B3F2B72
:101720004F5F5F4F685F7F4FEACF21153105D1F0E2
:1017300080918138811108C02093220630932306BE
:1017400081E0809381380AC080912206822B8093A9
:10175000220680912306832B8093230680E003C01A
:101760008BE001C082E0DF91CF910895009731F0C6
:101770008093DC389093DD3880E008958BE0089505
:1017800061157105A1F1009791F120918138222313
:1017900081F1243081F18093DA389093DB386093C3
:1017A0007F387093803810921806DC01ED91FC911F
:1017B0002281203439F420EC209318062091180659
:1017C000206205C0203841F4209118062862209339
:1017D000180610921E0613C0213879F420911806BD
:1017E00028622093180626E820931E0608C08BE086
:1017F000089583E0089581E0089582E008951092AD
:101800000006DC01ED91FC918481803108F080E1DB
:101810008093030681E080930B0680930A068093F1
:10182000753810928238109283380E9432098111E3
:101830000BC084E080938138809182389091833806
:101840000E94650980E0089582E0809381380895C0
:101850000097C9F0DC01ED91FC9111972081318155
:101860002617370790F045E0469F9001479F300DBF
:1018700011241496ED91FC911597E20FF31F81E06E
:10188000808380E008958BE0089582E00895FC0154
:10189000892BD1F1A081B1818D919C9111978617EF
:1018A0009707A0F112969C910480F581E02D903469
:1018B00059F485E0869FD001879FB00D1124AE0FAB
:1018C000BF1F84E392E00DC09058923080F485E011
:1018D000869FD001879FB00D1124AE0FBF1F87E6F2
:1018E00095E013968D939C93149780E001C082E05D
:1018F00095E0969F9001979F300D1124E20FF31F02
:1019000090819260908308958BE0089582E008951D
:101910001092000640911006509111068091823875
:10192000909183389C01220F331FE091DC38F091B5
:10193000DD38E20FF31F4083518301968093823894
:10194000909383380E943209811109C084E080930A
:10195000813880918238909183380C946509E091A8
:0C1960007F38F09180380994F894FFCF94
:06196C003F1C0B05030106
:101972005FB400864A03EB00000000000000AA5595
:10198200016EA09C382738C2381B38140300140398
:1019920000280100280100040004000500140514B9
:1019A2000135383D3800008438A638A338040003D6
:1019B20074384738010F0600010270385038A638D3
:1019C200882104000A010304842108000A01030497
:1019D2008C010020050101048C2000010501010495
:0619E20004008130000149
:00000001FF
